{
  "_format": "hh-sol-artifact-1",
  "contractName": "Game2",
  "sourceName": "contracts/Game2.sol",
  "abi": [
    {
      "anonymous": false,
      "inputs": [
        {
          "indexed": false,
          "internalType": "address",
          "name": "winner",
          "type": "address"
        }
      ],
      "name": "Winner",
      "type": "event"
    },
    {
      "inputs": [
        {
          "internalType": "uint256",
          "name": "_x",
          "type": "uint256"
        }
      ],
      "name": "setX",
      "outputs": [],
      "stateMutability": "nonpayable",
      "type": "function"
    },
    {
      "inputs": [
        {
          "internalType": "uint256",
          "name": "_y",
          "type": "uint256"
        }
      ],
      "name": "setY",
      "outputs": [],
      "stateMutability": "nonpayable",
      "type": "function"
    },
    {
      "inputs": [],
      "name": "win",
      "outputs": [],
      "stateMutability": "nonpayable",
      "type": "function"
    },
    {
      "inputs": [],
      "name": "x",
      "outputs": [
        {
          "internalType": "uint256",
          "name": "",
          "type": "uint256"
        }
      ],
      "stateMutability": "view",
      "type": "function"
    },
    {
      "inputs": [],
      "name": "y",
      "outputs": [
        {
          "internalType": "uint256",
          "name": "",
          "type": "uint256"
        }
      ],
      "stateMutability": "view",
      "type": "function"
    }
  ],
  "bytecode": "0x608060405234801561001057600080fd5b506102f2806100206000396000f3fe608060405234801561001057600080fd5b50600436106100575760003560e01c80630c55699c1461005c5780634018d9aa1461007a578063473ca96c1461009657806368d466b8146100a0578063a56dfe4a146100bc575b600080fd5b6100646100da565b6040516100719190610184565b60405180910390f35b610094600480360381019061008f91906101d0565b6100e0565b005b61009e6100ea565b005b6100ba60048036038101906100b591906101d0565b61015b565b005b6100c4610165565b6040516100d19190610184565b60405180910390f35b60005481565b8060008190555050565b600080541180156100fd57506000600154115b61010657600080fd5b6032600154600054610118919061022c565b1461012257600080fd5b7f745c90b656b4aafe296c8ca35aeacfe56cb96c90e1d320e5da643fff1051b6c03360405161015191906102a1565b60405180910390a1565b8060018190555050565b60015481565b6000819050919050565b61017e8161016b565b82525050565b60006020820190506101996000830184610175565b92915050565b600080fd5b6101ad8161016b565b81146101b857600080fd5b50565b6000813590506101ca816101a4565b92915050565b6000602082840312156101e6576101e561019f565b5b60006101f4848285016101bb565b91505092915050565b7f4e487b7100000000000000000000000000000000000000000000000000000000600052601160045260246000fd5b60006102378261016b565b91506102428361016b565b925082820190508082111561025a576102596101fd565b5b92915050565b600073ffffffffffffffffffffffffffffffffffffffff82169050919050565b600061028b82610260565b9050919050565b61029b81610280565b82525050565b60006020820190506102b66000830184610292565b9291505056fea26469706673582212203614d06108010b1967969ba8bcd207981896881bbfa41af543419ed8428113cb64736f6c63430008110033",
  "linkReferences": {},
  "deployedLinkReferences": {}
}