{
  "_format": "hh-sol-artifact-1",
  "contractName": "Game3",
  "sourceName": "contracts/Game3.sol",
  "abi": [
    {
      "anonymous": false,
      "inputs": [
        {
          "indexed": false,
          "internalType": "address",
          "name": "winner",
          "type": "address"
        }
      ],
      "name": "Winner",
      "type": "event"
    },
    {
      "inputs": [
        {
          "internalType": "uint8",
          "name": "x",
          "type": "uint8"
        }
      ],
      "name": "win",
      "outputs": [],
      "stateMutability": "nonpayable",
      "type": "function"
    }
  ],
  "bytecode": "0x608060405260d26000806101000a81548160ff021916908360ff16021790555034801561002b57600080fd5b5061025c8061003b6000396000f3fe608060405234801561001057600080fd5b506004361061002b5760003560e01c8063345a442314610030575b600080fd5b61004a60048036038101906100459190610120565b61004c565b005b60008060009054906101000a900460ff168201905060ff8160ff16146100a7576040517f08c379a000000000000000000000000000000000000000000000000000000000815260040161009e906101aa565b60405180910390fd5b507f745c90b656b4aafe296c8ca35aeacfe56cb96c90e1d320e5da643fff1051b6c0336040516100d7919061020b565b60405180910390a150565b600080fd5b600060ff82169050919050565b6100fd816100e7565b811461010857600080fd5b50565b60008135905061011a816100f4565b92915050565b600060208284031215610136576101356100e2565b5b60006101448482850161010b565b91505092915050565b600082825260208201905092915050565b7f496e636f727265637420617267756d656e742070617373656420696e21000000600082015250565b6000610194601d8361014d565b915061019f8261015e565b602082019050919050565b600060208201905081810360008301526101c381610187565b9050919050565b600073ffffffffffffffffffffffffffffffffffffffff82169050919050565b60006101f5826101ca565b9050919050565b610205816101ea565b82525050565b600060208201905061022060008301846101fc565b9291505056fea2646970667358221220048f8c363866230fc12d0c17dfde44e48512c431ca8ceb56f707e026f9e7032c64736f6c63430008110033",
  "linkReferences": {},
  "deployedLinkReferences": {}
}